:100000002BC045C044C043C042C041C0A5C33FC08F
:100010003EC03DC03CC03BC03AC039C038C037C00C
:1000200036C035C034C0BCC332C001030276020101
:1000300004003602020303670202010021020202E9
:10004000000B020303018002030100F6010302001A
:10005000E00100000000000011241FBECFE5D2E047
:10006000DEBFCDBF10E0A0E6B0E0EAE2F8E002C0FB
:1000700005900D92A636B107D9F710E0A6E6B0E0DC
:1000800001C01D92AE37B107E1F702D0CCC3B8CFA3
:1000900080D2DAD04ED340D133D27894FAD08823AC
:1000A000E9F344D1FBCFCF93DF93EC0123E0883E0B
:1000B000920708F44AC0FC01E85EF340CF0168EE05
:1000C00073E09DD3EC01CF0168EE73E098D36F5CD1
:1000D000862F14D3C436D10568F1FE01E456F040F2
:1000E000CF0164E670E08BD3EC01CF0164E670E0F1
:1000F00086D36F3FF9F0862F8F5C00D3CA30D105CD
:10010000D8F09E012A503040C9016AE070E077D3F0
:10011000462FC9016AE070E072D3EC014F3F61F0F5
:10012000842F8F5CEBD29E01205D822FE7D2DF917E
:10013000CF91089580E3E1CF80E3E0D29E01205D7E
:10014000822FDCD2DF91CF91089560E3C1CFCF93AE
:10015000DF93EC018436910568F1FC01E456F04030
:10016000CF0164E670E04BD3EC01CF0164E670E0B0
:1001700046D36F3FF9F0862F8F5CC0D2CA30D105CD
:10018000D8F09E012A503040C9016AE070E037D3B0
:10019000462FC9016AE070E032D3EC014F3F61F0B5
:1001A000842F8F5CABD29E01205D822FA7D2DF917E
:1001B000CF91089580E3E1CF80E3A0D29E01205D3E
:1001C000822F9CD2DF91CF9108951F93182F8436F0
:1001D000E8F0282F2456822F64E605D3192F822FAA
:1001E00002D38F5C8BD21A3098F0212F2A50822FA5
:1001F0006AE0F9D2382F822FF6D2192F3F5C832F75
:100200007DD2812F805D7AD21F91089580E3EACF5D
:1002100030E3F5CF1F93182F8A3088F0282F2A500B
:10022000822F6AE0E0D2382F822FDDD2192F3F5C77
:10023000832F64D2812F805D61D21F91089530E3B6
:10024000F7CF805D5BD2089587B3837E87BB88B389
:100250008C6188BB0895B3990BC091E080916600D2
:10026000853089F08A3070F48F5F8093660008953E
:10027000B49902C092E0F2CFB29902C093E0EECFFF
:100280001092660008958FE080936600892F22D037
:10029000089580916A008823B1F0E0916900F0E050
:1002A000E559FF4FE08180916A00815080936A0098
:1002B000809169008F5F809369008091690080312F
:1002C00029F08E2F0895E0E08E2F08951092690096
:1002D0008E2F0895982F80916A008031A0F4E091CC
:1002E0006800F0E0E559FF4F9083809168008F5FD0
:1002F0008093680080916800803131F080916A00BD
:100300008F5F80936A0008951092680080916A0060
:100310008F5F80936A00F7CF109268001092690097
:1003200010926A0081E0809367000895582FEAE2F6
:10033000F0E08491882309F437C040E020E030E009
:100340000FC04F5F242F30E0F901EE0FFF1FEE0FBB
:10035000FF1FE20FF31FE65DFF4F8491882329F111
:10036000949180916700981761F7B901660F771F24
:10037000660F771FCB01820F931FFC01E55DFF4FD6
:10038000E491E517F1F6FC01E45DFF4FE491EE2303
:1003900069F4FB01E20FF31FE35DFF4F8591949138
:1003A000009739F0FC01099508950895E0936700DE
:1003B000F0CF089584ECD2D080917C002BDF08959B
:1003C00080917C00882349F0815080937C0084ECEC
:1003D000C5D080917C001EDF08958BE380937C0064
:1003E00084ECBCD080917C0015DF089580917C0066
:1003F0008B3349F08F5F80937C0084ECAFD0809189
:100400007C0008DF089510927C0084ECA7D08091D6
:100410007C0000DF089580917D00882349F08150A1
:1004200080937D0081EC9AD080917D00F3DE089569
:1004300087E180937D0081EC91D080917D00EADEA0
:10044000089580917D00873149F08F5F80937D0012
:1004500081EC84D080917D00DDDE089510927D00D6
:1004600081EC7CD080917D00D5DE089580917B0069
:100470008F5F80937B008C33A9F081EC6FD08091EB
:100480007D00C8DE80917B0080FD06C08AE336D106
:1004900080917C00BFDE089580E230D180917C00A5
:1004A000B9DE089510927B0080917C008F5F80936D
:1004B0007C008C3311F710927C0080917D008F5F5F
:1004C00080937D008831C9F610927D00D6CF80ECF4
:1004D00045D080E213D180917D009CDE8CE30ED16B
:1004E00080917C0097DE8EE309D1089580EC36D0B0
:1004F0008CE304D180917D008DDE8EE3FFD00895E2
:10050000AAD081E82BD080E690E0ACD081EC26D058
:1005100080917D007FDE80917B0080FD08C08AE3B2
:10052000EDD080917C0076DE10927B00089580E211
:10053000E5D080917C006EDE10927B00089595EDF1
:100540009A95F1F7A89895B3807F9F70982B95BBEB
:10055000AA9A8AE08A95F1F7AA98089595ED9A9556
:10056000F1F7A89895B3282F207F9F70292B25BBE2
:10057000AA9A2AE0922F9A95F1F7AA98829595B3B4
:10058000807F9F70982B95BBAA9A2A95F1F7AA981D
:10059000089584B3806F84BB85B3806F85BB84B3BB
:1005A000876084BB85B3876085BBA99820E931E06B
:1005B00040E951E0CA010197F1F721503040D1F7ED
:1005C00025ED822F8A95F1F7A89885B38F70806307
:1005D00085BBAA9A9AE0892F8A95F1F7AA98E0E458
:1005E000FCE93197F1F7822F8A95F1F7A89885B346
:1005F0008F70806385BBAA9A892F8A95F1F7AA9894
:10060000E0EAFFE03197F1F7822F8A95F1F7A89899
:1006100085B38F70806385BBAA9A892F8A95F1F77D
:10062000AA982A95F1F7A89885B38F70806285BB48
:10063000AA9A9A95F1F7AA9888E290DF88E08EDF6F
:100640008CE08CDF81E08ADF80E49FE10197F1F7A5
:1006500086E084DF089581E081DF80E49FE10197F7
:10066000F1F70895FC01A89A2081222301F145EDBC
:100670003AE03196842F8A95F1F7A89A85B3922FA4
:10068000907F8F70982B95BBAA9A832F8A95F1F74C
:10069000AA98229585B3207F8F70282B25BBAA9A14
:1006A000832F8A95F1F7AA982081222311F70895C4
:1006B000FC018491882309F1282F45ED3AE0842F2D
:1006C0008A95F1F7A89A85B3922F907F8F70982B17
:1006D00095BBAA9A832F8A95F1F7AA98229585B39C
:1006E000207F8F70822B85BBAA9A832F8A95F1F782
:1006F000AA9831962491222311F7089595ED9A95A1
:10070000F1F7A89A95B3282F207F9F70292B25BB3E
:10071000AA9A2AE0922F9A95F1F7AA98829595B312
:10072000807F9F70982B95BBAA9A2A95F1F7AA987B
:10073000089582E089BF9DE093BF12BE8CE98CBF13
:1007400089B7806189BF1FBC9EBD1DBC1CBC89E0F0
:100750009DE39BBD8ABD08951F920F920FB60F9225
:1007600011242F933F934F935F936F937F938F93B6
:100770009F93AF93BF93EF93FF9384E0ABDDFF9123
:10078000EF91BF91AF919F918F917F916F915F9109
:100790004F913F912F910F900FBE0F901F90189582
:1007A0001F920F920FB60F9211242F933F934F93E6
:1007B0005F936F937F938F939F93AF93BF93EF93C9
:1007C000FF9349DDFF91EF91BF91AF919F918F9181
:1007D0007F916F915F914F913F912F910F900FBE3D
:1007E0000F901F901895991B79E004C0991F9617D8
:1007F00008F0961B881F7A95C9F780950895AA1B63
:10080000BB1B51E107C0AA1FBB1FA617B70710F0FB
:10081000A61BB70B881F991F5A95A9F7809590952D
:0A082000BC01CD010895F894FFCF4C
:06082A00636C6F636B00BC
:00000001FF
